:020000040800F2
:100000008005002001010008EF1B000865180008AA
:10001000ED1B00089D020008CF1D00080000000035
:10002000000000000000000000000000F31B0008BA
:10003000D702000800000000F11B0008F51B0008B3
:100040001B0100081B0100081B0100081B01000820
:100050001B0100081B0100081B0100081B01000810
:100060001B0100081B0100081B010008A102000879
:100070001B0100081B0100081B0100081B010008F0
:100080001B0100081B0100081B0100081B010008E0
:100090001B0100081B0100081B0100081B010008D0
:1000A0001B010008991C00081B0100081B01000827
:1000B0001B0100081B0100081B0100081B010008B0
:1000C0001B0100081B0100081B0100081B010008A0
:1000D0001B0100081B0100081B0100081B01000890
:1000E0001B0100081B0100081B010008DFF80CD0F1
:1000F00000F02AF80048004785210008800500200C
:100100000648804706480047FEE7FEE7FEE7FEE7B1
:10011000FEE7FEE7FEE7FEE7FEE7FEE7511C00080C
:10012000ED000008D2B201E000F8012B491EFBD21D
:1001300070470022F6E710B513460A4604461946F2
:10014000FFF7F0FF204610BD064C074D06E0E068C3
:1001500040F0010394E8070098471034AC42F6D30E
:10016000FFF7C8FFD8220008F822000870B504463F
:1001700000688168C943C9071CD1816821F0010169
:10018000816000F0C3FC05460FE000BF00F0BEFC3C
:10019000401B022809D9A06A40F01000A062E06A62
:1001A00040F00100E062012070BD20688068C0431B
:1001B000C007EBD0002070BD10B50146406A826ACE
:1001C00012F0500F05D0006A026BBDE810400846DF
:1001D0001047816A41F40071816201688968C1F346
:1001E000424107290CD1017B51B9816A21F4807108
:1001F0008162816AC90403D4816A41F0010181628C
:1002000000F0EAF810BD10B5406A816A41F0400183
:100210008162C16A41F00401C16200F002F910BDBF
:1002200010B5406A00F0FCF810BD0000F8B50026DB
:100230000446009600688168C943C90728D08168D0
:1002400041F001018160134813490068B0FBF1F0EF
:1002500000E0401E00900028FBD100F057FC05464E
:1002600011E000BF00F052FC401B02280BD9A06A2D
:1002700040F01000A062E06A40F00100E06284F803
:1002800024600120F8BD20688068C043C007E9D120
:100290000020F8BD5800002040420F00FEE700009B
:1002A000014800F01BBA00003801002030B590F87A
:1002B00040500124AC40C56B6C60046863604368C7
:1002C000102B036803D099600068C26030BD9A604B
:1002D0000068C16030BD704770470000F8B5002469
:1002E000009490F824202546012A12D0012280F89B
:1002F00024204A681F23072A0DD20668776B521EF6
:1003000002EB820293409F430B6893401F43776345
:1003100019E00220F8BD06680D2A0AD2376BD21FF9
:1003200002EB820293409F430B6893401F43376365
:1003300009E0F76A0D3A02EB820293409F430B6893
:1003400093401F43F7620A68072306680A2A0AD304
:10035000F7680A3A02EB420293409F438B6893404E
:100360001F43F76008E0376902EB420293409F4366
:100370008B6893401F4337610A68102A01D0112A05
:1003800020D1124B02689A4217D193681B0219D4EC
:10039000936843F4000393600968102912D10C4953
:1003A0000C4A0968B1FBF2F101EB8101490000E060
:1003B000491E00910029FBD104E0816A41F020012F
:1003C0008162012480F824502046F8BD00240140B9
:1003D0005800002040420F0070B5104C0020A4F1DE
:1003E00008010546A1F10803225C2AB153F82060F8
:1003F000D64041F8206003E053F8202041F8202047
:1004000043F82050401CC0B20228EDD303480A88AC
:100410003838C2818988018270BD00003800002010
:10042000704770472DE9F0414FF0000704003D464A
:100430007ED0A06A002628B9E66284F824602046AF
:1004400000F07EF82046FFF791FEA16AC90600D4AD
:1004500020B1A06A40F01000A06269E0A16A21F416
:10046000885141F00201A1626268E169237B0A437D
:1004700047EA43010A43A1684FF48077B94209D0A3
:10048000012907D05FF0000194F814C0BCF1010FFE
:1004900002D00AE03946F7E7F3B1A36A43F020033C
:1004A000A362E36A43F00103E3622368D3F804C064
:1004B0002CF4694C4CEA010CC3F804C021688B6829
:1004C000DFF870C003EA0C0313438B60A168B942E4
:1004D0000BD0012909D00CE0DFF85CC0A3690CEB5C
:1004E00043330B4343F40061DFE7218A0D05A5F593
:1004F00080152168CB6A23F470032B43CB622168FB
:1005000089680E4B1940914208D1E662A16A21F038
:10051000020141F00101A162BDE8F081A06A20F072
:10052000020040F01000A062E06A40F00100E062CA
:100530000120F1E7FDF7E1FF00E0FFFFFE0E1FFFE6
:1005400070B586B000260546009601960296039681
:1005500000681A4988422ED11949886940F4007010
:100560008861886900F400700490886940F0040094
:1005700088618869694600F00400049003200090B7
:100580000190104800F0CCF9104C0F48C4E9000667
:100590008020C4E90260800020618000606120202A
:1005A000A0610002E061204600F042F908B1FFF7C7
:1005B00093FE2C62656206B070BD0000002401400D
:1005C00000100240000801400800024038010020ED
:1005D0002DE9F047894604463B4900683B4F0E1D14
:1005E0009046884201D0B84207D1306810F4702F8D
:1005F00003D001252846BDE8F08794F8240001289F
:100600000CD0012084F824002046FFF70FFE0500DF
:100610004FF0000004D084F82400EBE70220EAE762
:10062000A16A40F60162914341F48071A1622168A0
:10063000B94218D1326812F4702F14D0A16A41F473
:100640008011A1623168490505D5A16A21F40051E4
:1006500041F48051A162A16AC9040AD5E16A21F07E
:100660000601E16206E0A26A22F48012A2624968F1
:10067000E9E7E06284F82400216A15488862216A6B
:100680001448C862216A1448086321686FF00200A8
:1006900008602068816841F4807181602168434668
:1006A0004A464C31206A00F0F1F820688168C1F3B5
:1006B00042410729816803D041F48011816099E7A4
:1006C00041F4A001FAE700000024014000280140A5
:1006D000B901000821020008070200082DE9F05FB7
:1006E000C16B0C6801680B68D0F840C0042202FAA4
:1006F0000CF2494DDFF824A1494E4A4FDFF828B1EA
:10070000DFF828E122422CD05A072AD50A6892063F
:1007100003D40A6822F004020A600168A94201D1E8
:10072000042219E0514501D1402215E0B14202D125
:100730004FF4806210E0B94202D14FF480420BE0E6
:10074000594502D14FF4802206E0714502D14FF4A1
:10075000800201E04FF080622F4908394A60C16A87
:100760003BE04FF0020808FA0CF818EA040F4FF0CB
:1007700000094FF0010235D05FEA837832D50B686B
:100780009B0605D40B6823F00A030B6080F8212038
:100790000168A94201D1022219E0514501D120226C
:1007A00015E0B14202D14FF4007210E0B94202D11B
:1007B0004FF400520BE0594502D14FF4003206E0ED
:1007C000714502D14FF4001201E04FF0007212495E
:1007D00008394A6080F82090816A00291AD0BDE863
:1007E000F05F0847082505FA0CF5254212D01B07D3
:1007F00010D50B6823F00E030B6090F84010C36B0C
:1008000002FA01F15960826380F8212080F820907B
:10081000016BE2E7BDE8F09F080002401C000240C7
:100820003000024044000240580002406C00024088
:1008300030B528B308C8134914221944B1FBF2F1AA
:100840008900C16310498163022141771A6843F628
:10085000F0718A43D0E900142143D0E902452C43CA
:10086000214304692143446921438469214311439D
:10087000196000214163012242770177084630BDAB
:10088000012030BDF8FFFDBF0000024070B50446F6
:1008900090F82000002501280CD0012084F82000C9
:1008A00094F821600020012E06D084F82000022553
:1008B000284670BD022070BD022684F82160A06326
:1008C0002068066826F0010606602046FFF7EEFC69
:1008D000E06A00282068016802D041F00E0106E0BD
:1008E00021F0040101602068016841F00A01016003
:1008F0002068016841F001010160D9E770B5044644
:1009000000F004F90546601C02D004480078044455
:1009100000F0FCF8401BA042FAD370BD4C00002050
:100920002DE9F84FDFF8B891002409F1040A0AF123
:10093000040B23460F270BF1040EC9E00125A54047
:100940002A40AA427DD1674ED1F804C0ACEB06081C
:10095000B44532D014DCBCF1030F3AD009DCBCF151
:10096000000F2AD0BCF1010F1CD0BCF1020F31D115
:100970001DE0BCF1110F17D0BCF1120F2AD119E004
:10098000B8F5881F19D006DCB8F5803F15D0B8F54A
:10099000801F1FD111E0B8F5001F0ED0B8F5041F5D
:1009A00018D10AE0CB6815E0CB681B1D12E0CB68BC
:1009B00008330FE0CB680C330CE08B682BB1012BB4
:1009C0004FF0080303D0456104E0042302E0056111
:1009D00000E00023FF2A01D8064601E000F10406EA
:1009E0004FEA840501D9A5F12005D6F8008007FA61
:1009F00005FC28EA0C0803FA05F548EA0508C6F8DC
:100A000000804D68ED0062D5374DAE6946F00106B5
:100A1000AE61AD6924F0030605F001050095334D84
:100A200006EB050CDCF80850A607360F07FA06F8A7
:100A300025EA0805DFF8B880404503D14FF00008EB
:100A400017E044E0DFF8AC80404502D14FF00108E8
:100A50000FE0DFF8A480404502D14FF0020808E023
:100A6000DFF89880404502D14FF0030801E04FF0D5
:100A7000040808FA06F848EA0508CCF808804D682A
:100A8000D9F80060ED034D4601D5164300E09643CA
:100A90002E604D68DAF80060AD03554601D5164367
:100AA00000E096432E604D68DBF80060ED025D4685
:100AB00001D5164300E096432E604D68DEF80060D5
:100AC000AD02754601D5164300E096432E60641CC6
:100AD0000D682A46E5407FF431AFBDE8F88F00008D
:100AE000000401400000111000100240000001400D
:100AF00000080140000C01400010014000140140BA
:100B00000AB1016170470904FBE7000001488068F1
:100B1000704700004C00002070B504001BD094F812
:100B20003D00002520B984F83C50204600F044F9EF
:100B3000242084F83D002068016821F00101016053
:100B400000F016FB4D4A6168914201D84C4900E023
:100B50004C49884201D2012070BD4B492368B0FB4B
:100B6000F1F15E6826F03F060E435E6063689342D3
:100B700006D94FF4967359434FF47A73B1FBF3F1EE
:100B80002368491C1E6A26F03F06314319626168DA
:100B9000914210D84900401EB0FBF1F2521CC2F342
:100BA0000B02042A01D2042022E0B0FBF1F0401C29
:100BB000C0F30B001CE0A368F3B301EBC10202EB2E
:100BC0000116421EB2FBF6F2521C42F4804212059C
:100BD00049D093B301EBC10202EB0111401EB0FBFF
:100BE000F1F0401CC0F30B0040F4804040F40040A2
:100BF0002168CA694CF6FF739A431043C861D4E96F
:100C00000701084321680A6822F0C0021043086007
:100C1000D4E9030101432068826848F2FF339A4314
:100C200011438160D4E9050108432168CA6822F0B4
:100C3000FF021043C86001E00EE016E02068016882
:100C400041F0010101602564202084F83D00256306
:100C500084F83E50002070BD01EB4106421EB2FBFD
:100C6000F6F2521CB3E70120C2E701EB4101401E3E
:100C7000B0FBF1F0401CC0F30B00B7E7A086010009
:100C800080841E0000093D0040420F002DE9F84F0E
:100C90001F4690468A460446DDF82890FFF736FF47
:100CA000054694F83D0020287FD1192301224049B0
:100CB0002046009500F058FE002876D194F83C00BC
:100CC000012872D0012084F83C0020680168C9071F
:100CD00003D1016841F0010101602068016821F43D
:100CE00000610160212084F83D00102084F83E005E
:100CF00000262664C4F824806785608D20852D48F1
:100D0000E0622B464A465146204600F0C3FD90B9AA
:100D1000206841698069009036E02A4649462046AD
:100D200000F0A1FE50B1206C042804D120680168B5
:100D300041F4007101600120BDE8F88F606A21680C
:100D400000780861606A401C6062618D491E61859F
:100D5000218D491E89B2218522685369DB435B07D7
:100D60000BD451B100781061606A401C6062608DE4
:100D7000401E6085208D401E20852A46494620461B
:100D800000F0CCFD0028CED1208D0028C5D154F82C
:100D90003D0B016841F400710160202004F81E0938
:100DA000E67766770020C7E7FFE70220C4E7000088
:100DB000020010000000FFFF10B586B00021009176
:100DC00001910291039100681349884222D1134C8A
:100DD000A06940F00800A061A069694600F0080021
:100DE00004904FF440700090122001900320039073
:100DF0000B48FFF795FD0B48416841F0E06141F079
:100E000002014160E06940F40010E061E06900F433
:100E10000010049006B010BD0054004000100240C5
:100E2000000C014000000140024881680278114432
:100E3000816070474C000020074810B5016841F000
:100E400010010160032000F075F8002000F006F8A2
:100E500000F024F8002010BD0020024070B50D4DB8
:100E600004464FF47A712878B1FBF0F00A4909681A
:100E7000B1FBF0F000F052FB48B9102C07D2002271
:100E80002146501E00F036F800206C6070BD012035
:100E900070BD00004C000020580000200C4808B530
:100EA000816941F001018161816901F001010091D5
:100EB000C16941F08051C161C06900F0805000906B
:100EC0000448416821F0E06141F00071416008BDD3
:100ED0000010024000000140002809DB00F01F0262
:100EE000012191404009800000F1E020C0F800118C
:100EF00070470000F0B40E4B1B680C46C3F302238E
:100F0000C3F10705042D00D90425191D072901D2B5
:100F1000002300E0DB1E012606FA05F1491E2140F0
:100F200099409E40761E16403143F0BC00F050BF01
:100F30000CED00E0064900F0070208684FF6FF03D9
:100F4000184040EA0220034A10430860704700003E
:100F50000CED00E00000FA052DE9F84305460078A5
:100F6000354CC00754D0E0690026C00008D4E069C1
:100F700040F08050E061E069012600F08050009070
:100F80002E480168C90512D40168804641F4807179
:100F90000160FFF7BBFD074605E000BFFFF7B6FDA8
:100FA000C01B642823D8D8F80000C005F6D5206AF5
:100FB00010F4407021D0A98801F4407181421CD006
:100FC000206A1F49012220F440700A6000220A6052
:100FD0002062C00711D0FFF799FD074641F288381B
:100FE00008E000BFFFF792FDC11B414502D9032075
:100FF000BDE8F883206A8007F4D5206A696820F488
:101000004070084320621EB1E06920F08050E0612A
:101010002878800705D56068A96820F44040084317
:1010200060602878C00605D56068E96820F4800013
:10103000084360600020DBE70010024000700040C1
:10104000400442422DE9F0470F46050061D0434E6F
:10105000306800F00700B84209D2306820F007007D
:1010600038433060306800F00700B84251D128683A
:101070003B4C810712D5400703D5606840F4E0601F
:1010800060602878000703D5606840F460506060B5
:101090006068A96820F0F000084360602878C00705
:1010A00028D06868012810D02168022810D089074C
:1010B00000292EDA616821F0030101436160FFF726
:1010C00025FD804641F288390DE021688903EFE76C
:1010D0008901EDE7FFF71AFDA0EB0801494502D9A8
:1010E0000320BDE8F0876068696800F00C00B0EB91
:1010F000810FEFD1306800F00700B8420BD930689B
:1011000020F0070038433060306800F00700B84234
:1011100001D00120E5E72878400705D56068E96837
:1011200020F4E060084360602878000706D5606816
:10113000296920F4605040EAC100606000F028F89E
:101140006168084AC1F30311515CC8400649086050
:1011500006480068FFF782FE0020C2E70020024038
:1011600000100240C022000858000020500000205B
:101170000448054900684968044AC1F30221515CEA
:10118000C84070475800002000100240D0220008DC
:1011900012A185B00FC98DE80F0014A0144A006891
:1011A00004905168134801F00C03042B10D0082B55
:1011B0000ED1C1F38343C9031DF803000AD551685A
:1011C00004AAC1F34041515C0A4A5043B0FBF1F01C
:1011D00005B0704708494843FAE7000002030405D8
:1011E000060708090A0B0C0D0E0F10100102000073
:1011F0000010024000127A0000093D002DE9F84F6E
:10120000040070D02078C04DC00749D06868C0F392
:101210008100012807D06868C0F38100022809D145
:101220006868C00306D52868800339D5606800283F
:10123000E7D035E06068B0F5803F0BD010B1B0F575
:10124000A02F11D0286820F480302860286820F46E
:10125000802002E0286840F480302860606890B107
:10126000FFF754FC06460AE0286840F48020286016
:10127000F0E700BFFFF74AFC801B642873D828689A
:101280008003F7D50CE0FFF741FC064605E000BF00
:10129000FFF73CFC801B6428F0D828688003F7D453
:1012A00020789A4E80074FF001094FF0000839D599
:1012B000686810F00C0F07D06868C0F3810002283E
:1012C00009D16868C00306D42868800714D520694E
:1012D000012808D110E02069B0B1C6F80090FFF7EE
:1012E00015FC074605E00AE1FFF710FCC01B0228C9
:1012F000C4D828688007F7D52868616920F0F8000D
:1013000040EAC10028600DE0C6F80080FFF7FEFB50
:10131000074604E0FFF7FAFBC01B022823D8286821
:101320008007F7D4207800072CD57948A169D9B176
:10133000C0F80090FFF7EAFB074604E0FFF7E6FB82
:10134000C01B02280FD8686A8007F7D571484FF490
:10135000FA510068B0FBF1F0009000BF0098411E08
:101360000091FAD20EE080E0C0F80080FFF7CEFBDB
:10137000074604E0FFF7CAFBC01B022875D8686A5D
:101380008007F7D42078400760D5E8690027C000BF
:1013900008D4E86940F08050E861E869012700F06E
:1013A000805000905C480168C90513D401688346E9
:1013B00041F480710160FFF7A9FB824606E000BF9F
:1013C000FFF7A4FBA0EB0A0064284ED8DBF800006E
:1013D000C005F5D5E06801280AD008B1052813D06A
:1013E000286A20F001002862286A20F0040002E048
:1013F000286A40F001002862E06841F2883B98B119
:10140000FFF784FB82460BE0286A40F00400286264
:10141000EEE700BFFFF77AFBA0EB0A0159455AD867
:10142000286A8007F6D50CE0FFF770FB824605E0DE
:10143000FFF76CFBA0EB0A0159454CD8286A8007DE
:10144000F6D41FB1E86920F08050E861E06988B304
:101450006968C1F38101022944D00228C6F860807E
:1014600004D0FFF753FB044638E034E0FFF74EFBAF
:10147000074604E0FFF74AFBC01B02282BD8286868
:101480008001F7D4206AB0F5803F05D16868A16873
:1014900020F4003008436860D4E908010843696813
:1014A00021F4741108436860C6F86090FFF72EFBC2
:1014B000044606E025E000BFFFF728FB001B0228DA
:1014C00009D828688001F7D51BE000BFFFF71EFB95
:1014D000001B022802D90320BDE8F88F286880018C
:1014E000F4D40EE00128F7D06868226A00F4803155
:1014F000914204D1616A00F47010884201D0012049
:10150000EAE70020E8E70000001002400000424245
:1015100080044242580000200070004010B5401E78
:10152000B0F1807F01D3012010BD4FF0E024606155
:101530000F21601700F04CFC0020A0610720206103
:10154000002010BD7047704770B590F83C20012A0C
:1015500019D0012400F83C4F0222427050F83C3C64
:101560005A689D6822F070060A684968324325F07F
:10157000800529435A6050F83C2C9160447000214A
:101580000170084670BD022070BD10B5040003D084
:1015900094F83D0010B107E0012010BD002084F850
:1015A0003C00204600F00CF8022084F83D00211D8C
:1015B000206800F0A1FB012084F83D00002010BD50
:1015C00008B500680B49884212D10B48816941F483
:1015D000006181618069002200F400600090114682
:1015E0001920FFF787FCBDE808401920FFF774BCFD
:1015F00008BD0000002C0140001002400168CA68CC
:1016000042F00102CA600068816801F00701062902
:1016100003D0016841F0010101600020704770B5FE
:10162000044690F83C00012817D0012584F83C506E
:10163000022084F83D002068826822F0770222F4BC
:101640007F4282600868502830D00DDC20284DD0C1
:1016500005DC98B310283BD148E0022070BD30284B
:1016600044D0402834D139E0602828D0702806D0F2
:10167000B0F5805F2CD0B0F5005F29D10AE0CB68CF
:10168000D1E90121206800F06DFB2068816841F0FC
:10169000770109E0CB68D1E90121206800F062FB05
:1016A0002068816841F48041816011E0CA6849681E
:1016B000206800F069FB5021206807E016E0CA6846
:1016C0004968206800F071FB6021206800F054FB3D
:1016D00084F83D50002084F83C0070BDCA68496819
:1016E000206800F051FB40212068EFE722680146A6
:1016F0001046EBE7704770B50446006801694FF08B
:101700000005C943890715D4C168C943890711D4A5
:10171000E91E01610120207720688069800720464A
:1017200002D0FFF7E7FF04E000F098F8204600F051
:1017300096F8257720680169C943490717D4C1681D
:10174000C943490713D46FF00401016102202077D7
:101750002068806910F4407F204602D0FFF7CAFF5E
:1017600004E000F07BF8204600F079F82577206847
:101770000169C943090716D4C168C943090712D4CE
:101780006FF008010161042020772068C06980079C
:10179000204602D0FFF7AEFF04E000F05FF82046DD
:1017A00000F05DF8257720680169C943C90617D4A0
:1017B000C168C943C90613D46FF010010161082044
:1017C00020772068C06910F4407F204602D0FFF7E0
:1017D00091FF04E000F042F8204600F040F8257741
:1017E00020680169C943C90708D1C168C943C9074D
:1017F00004D1891E0161204600F032F82068016999
:10180000C943090609D4C168C943090605D46FF064
:10181000800101612046FFF795FE20680169C943F8
:10182000490609D4C168C943490605D46FF040018F
:101830000161204600F015F820680169C943890656
:101840000BD4C168C943890607D46FF02001016138
:101850002046BDE87040FFF776BE70BD7047704708
:1018600070477047FEE701684A69D24352050FD4BA
:101870006FF480624A61002140F8301F20224273D9
:101880008173026942F00402026101730120704712
:1018900000207047F8B50446C06A1E460D4617463C
:1018A000082807D0012805D010F5803F02D0206B12
:1018B000122804D12068016841F480710160134648
:1018C00000224FF001112046009600F04DF808BBB1
:1018D0002069B0F5804F0ED00620216800EAD510AF
:1018E00040F0F000086133463A460B49204600F0CC
:1018F0006FF878B902E005F0FE0000E0E8B2216878
:101900000861054933463A46891F204600F060F8D1
:10191000002800D00120F8BD0800010070B516466F
:101920000D4604460DE02046FFF79DFF08B101205B
:1019300070BD681C05D0FFF7E9F8801BA84207D8E6
:1019400035B120684069C0434007ECD4002070BD29
:10195000002044F8300F20216173A073216941F009
:10196000200121612073E2E72DE9F0471E469046F1
:101970000D460446C1F30747DDF8209008E0701CCF
:1019800006D0FFF7C3F8A0EB0900B0420FD876B13C
:101990002068012F18D0806925EA00000004000C9F
:1019A00014D000214145EAD00020BDE8F087002096
:1019B00044F8300F20216173A073216941F02001A8
:1019C000216120730120F0E74069E5E70121E9E7A3
:1019D0002DE9F0479A4691460E46044600254FF001
:1019E0002008C1F3074725E020684069C04340054F
:1019F00014D42068016841F40071016021686FF41B
:101A000080604861256384F83D8084F83E50206CF6
:101A100040F00400206484F83C501FE0B9F1FF3F1F
:101A200008D0FFF773F8A0EB0A0149450CD8B9F1CB
:101A3000000F09D02068012F13D0806926EA00002A
:101A40000004000C0BD0CFE744F8305F84F80D8021
:101A5000A573206940F02000206125730120BDE8B6
:101A6000F0874069EAE770B516460D4604460DE07A
:101A70002046FFF7F8FE08B1012070BD681C05D0B4
:101A8000FFF744F8801BA84207D835B120684069A9
:101A9000C0430006ECD4002070BD002044F8300F95
:101AA00020216173A073216941F02001216120731D
:101AB000E2E70000FEB500241148009401940F49AC
:101AC0000294016089158160012505730475022661
:101AD00006614FF460214460C161FEF7A3FC07205A
:101AE0000094CDE9015069460548FEF7F7FBCDE9C2
:101AF000005669460248FEF7F1FBFEBD0024014096
:101B00005C00002030B585B000242048009401948A
:101B100002940394816941F010018161816901F0AF
:101B200010010491816941F020018161816901F016
:101B300020010491816941F004018161816901F012
:101B400004010491816941F0080181618069104DAF
:101B500000F0080004900022EF212846FEF7D0FF95
:101B6000EF2000900120CDE9010402200390694696
:101B70002846FEF7D5FE2815CDE90004694628461B
:101B80000294FEF7CDFE05B030BD0000001002400B
:101B9000000C014010B586B0002413480094019455
:101BA0000294039404940F49059401600221C0E952
:101BB000011444F25061C0E903148021C0E90541D9
:101BC000FFF7E3FC4FF48050009069460648FFF7AA
:101BD00026FD049404A904480594FFF7B5FC06B05B
:101BE00010BD0000002C0140E0000020FEE770471F
:101BF00070477047FFF718B930B593B02821684691
:101C0000FEF797FA14210AA8FEF793FA00240120A0
:101C10000F9410941194010412948DE81300049011
:101C2000CDE90814022507956846FFF7E7FA0F206B
:101C30000A90CDE90B540D9400210AA80E94FFF7E9
:101C400001FA0FA80F951194FFF786F913B030BD74
:101C50000D48016841F00101016041680B4A1140E3
:101C6000416001680A4A11400160016821F4802145
:101C70000160416821F4FE0141604FF41F01816061
:101C80000449C00308607047001002400000FFF8DC
:101C9000FFFFF6FE08ED00E010B51348FFF72BFD3F
:101CA0001248017841F001010170CA0702D021F009
:101CB000010101700E490A78521CD3B200220B7048
:101CC000052B04D30A70017841F002010170094923
:101CD0000B785B1CDBB20B70192B04D30A700178F4
:101CE00041F00401017010BDE00000200000002060
:101CF0004800002049000020F0B50268164B174C40
:101D0000174D4FF08047984205D0B84203D0A0420B
:101D100001D0A84203D122F070064A6832439842AB
:101D200005D0B84203D0A04201D0A84203D122F48A
:101D30004074CA6822434C6922F080022243026048
:101D40008A68C2620A688262984201D109690163A5
:101D500001214161F0BD0000002C01400004004061
:101D60000008004010B5846842EA032224F47F444E
:101D70000A432243826010BD826822F070020A4347
:101D800042F007018160704710B5036A046A24F0CD
:101D900001040462846924F0F00444EA021423F08C
:101DA0000A020A438461026210BD10B5036A23F07F
:101DB000100303628369046A23F4704343EA023226
:101DC00024F0A00343EA01118261016210BDFEE725
:101DD0000907090E002804DB00F1E02080F8001458
:101DE000704700F00F0000F1E02080F8141D7047EC
:101DF00002E008C8121F08C1002AFAD170477047D4
:101E0000002001E001C1121F002AFBD17047000031
:101E10002DE9F041494C4A4F04F11205E089297837
:101E2000A0F1AA0200266F2A14D321F080002870A6
:101E3000E078401CC0B2E070052825D9E670002289
:101E400040213846FEF75CFE687840F00400687078
:101E5000267119E0B538592816D241F08000287053
:101E60002079401CC0B2207105280DD32671E67080
:101E7000687820F0090068700220FEF73FFD00221C
:101E800040213846FEF73CFE6978080745D4E089D2
:101E9000A0F1B502132A0CD2E279521CD2B2E2713F
:101EA000052A06D121F06001E67141F080016970D8
:101EB000AE70A0F1CB0111290CD2A179491CC9B295
:101EC000A171052906D1A671697821F0E001697038
:101ED0000121A970A0F1DF0111290DD2A17A491CBD
:101EE000C9B2A172052907D1A672AE70697821F036
:101EF000A00141F040016970F3381B280DD2207A0F
:101F0000401CC0B22072052807D12672687820F0E4
:101F1000C00040F020006870AE70687841070BD5B3
:101F2000617A491CC9B26172232905D320F00400EB
:101F3000667240F008006870BDE8F0810000002083
:101F4000000C014070B5444D444C687880061DD5A6
:101F5000002204212046FEF7D3FD01220221204663
:101F6000FEF7CEFD012211462046FEF7C9FD0122F3
:101F700080212046FEF7C4FD012208212046FEF7FD
:101F8000BFFD002220212046FEF7BAFD68784006FA
:101F90001DD5012204212046FEF7B2FD01220221B7
:101FA0002046FEF7ADFD002201212046FEF7A8FDE8
:101FB000012280212046FEF7A3FD002208212046B1
:101FC000FEF79EFD012220212046FEF799FDA8780C
:101FD000C0071DD0012204212046FEF791FD0122F9
:101FE00002212046FEF78CFD002201212046FEF74B
:101FF00087FD002280212046FEF782FD0122082174
:102000002046FEF77DFD012220212046FEF778FDC7
:10201000687800061FD5012204212046FEF770FDD6
:10202000002202212046FEF76BFD002201212046FE
:10203000FEF766FD012280212046FEF761FD0122A8
:1020400008212046FEF75CFD2046BDE870400122D5
:102050002021FEF755BD70BD12000020000C01408C
:1020600010B5002000F044F80024202000F060F8B3
:10207000641C642CF9DB10BD10B53220FEF73EFC69
:10208000302000F035F80520FEF738FC302000F055
:102090002FF80120FEF732FC302000F029F80A204A
:1020A000FEF72CFC202000F023F80A20FEF726FC87
:1020B000282000F01DF80120FEF720FC082000F089
:1020C00017F80120FEF71AFC012000F011F801209A
:1020D000FEF714FC0120FEF711FC062000F008F8C2
:1020E0000120FEF70BFCBDE810400C20AFF3008090
:1020F0001CB500F0F00141F00C028DF8042041F015
:10210000080100018DF8051040F00C018DF8061053
:1021100040F008008DF8070064200090042301AA15
:102120004E210248FEF7B2FD1CBD00008C000020CD
:102130001CB500F0F00141F00D028DF8042041F0D3
:10214000090100018DF8051040F00D018DF8061011
:1021500040F009008DF8070064200090042301AAD4
:102160004E210248FEF792FD1CBD00008C000020AD
:1021700010B5044602E0641CFFF7DAFF207800285F
:10218000F9D110BD08B5FEF757FEFFF735FDFFF793
:10219000B9FC3A48416941F00101416140690022BE
:1021A00000F00100009011460B20FEF7A3FE0B206B
:1021B000FEF792FEFFF7EEFCFFF77CFC314830495A
:1021C000002601603049C0E901164FF48041C0E9A2
:1021D000036146618661C6610662FEF79DFCFFF7FA
:1021E0004BFFFFF73DFF8020FFF782FF27A0FFF79F
:1021F000BFFFC020FFF77CFF2AA0FFF7B9FF2148EF
:102200005430FFF7FBF91F4802222C493038FEF703
:10221000DFF92A4D283D2C46207881070CD56978B6
:10222000491CC9B269700A2903D36E7040F00800D6
:10223000207000F0FD002070C0B2410709D520F0E9
:1022400004002070A878401CA870FFF7E1FDFFF79C
:1022500079FE2078010709D5A9780A2903D3AE7041
:1022600040F01000207000F0F7002070C0B2C106EE
:10227000D2D520F010002070CEE700000010024000
:10228000005400408C000020801A06002053617525
:102290006D796120636F6E74726F6C6C6572732000
:1022A000000000002020204D623A203936303438BA
:1022B0003631303536202020000000002800002074
:1022C00000000000000000000102030406070809E6
:1022D0000000000001020304F822000800000020B2
:1022E0005C000000F01D0008542300085C00002082
:1022F00024050000001E000800000000000000008F
:1023000000000000000000000000000000000000CD
:1023100000000000000000000000000000000000BD
:1023200000000000000000000000000000000000AD
:102330000304010101010101010101010101010089
:10234000000000000100000010000000000000007C
:042350000024F40071
:04000005080000ED02
:00000001FF
